:020000022000DC
:1030000000F000208932020035320200093502004A
:1030100000000000000000000000000000000000B0
:103020000000000000000000000000003932020033
:1030300000000000000000003B3202003D320200B0
:103040003F320200413202004332020045320200A8
:103050004732020049320200B93602004D32020006
:103060004F32020051320200533202005532020048
:1030700057320200593202005B3202005D32020018
:103080005F32020061320200958102006532020067
:103090006732020069320200493502006D320200D7
:1030A0006F32020071320200733202007532020088
:1030B00077320200793202000000000000000000B8
:1030C0007B3202007D3202007F3202008132020038
:0C30D000833202008532020087320200C9
:1030DC00354936480A1A02D0072291438D463449A5
:1030EC0034480A1A06D00722914381F30988022238
:1030FC0082F3148830483149314A00F043F83148A2
:10310C003149324A00F03EF831483249324A00F037
:10311C0039F832483249334A00F034F832483349EE
:10312C00334A00F02FF833483349344A00F02AF878
:10313C0033483449344A00F025F8344834490022E5
:10314C0000F02BF833483449002200F026F83348BD
:10315C003349091A082903DB00220260043001609C
:10316C001F482049884205D00268043003B49047B8
:10317C0003BCF7E700208646EC4600200021294AD4
:10318C009047FEE7884207D0521A05D003780130E9
:10319C000B700131013AF9D17047884202D00270AC
:1031AC000130FAE77047000000F0002000E8002032
:1031BC0000F0002000F000202C750300B03100203E
:1031CC0058320020AC320200AC32020058660300C8
:1031DC002C750300B0310020B0310020586603007C
:1031EC0058660300586603005866030058660300CF
:1031FC005866030058660300586603002C750300DC
:10320C00D475030058320020583200205832002068
:10321C007C6000207C6000207C6000207C600020B2
:10322C007C640020F9330200FEE7FEE7FEE7FEE7D0
:10323C00FEE7FEE7FEE7FEE7FEE7FEE7FEE7FEE75A
:10324C00FEE7FEE7FEE7FEE7FEE7FEE7FEE7FEE74A
:10325C00FEE7FEE7FEE7FEE7FEE7FEE7FEE7FEE73A
:10326C00FEE7FEE7FEE7FEE7FEE7FEE7FEE7FEE72A
:10327C00FEE7FEE7FEE7FEE7FEE7FEE707488546CA
:10328C0008F008F94EF68850CEF20000016851F4AF
:10329C0070010160FFF71CBF7047000000F00020B8
:1032AC0000B583B0194B1B6813F4804F03D0184B37
:1032BC001B68032B15D81748174B4360174B8360BB
:1032CC00002113F04BF8B8B9124B188809F052FDD5
:1032DC00B8B901214FF4F01000F06FF903B05DF8AC
:1032EC0004FB0F4BD3F804350E4A009255220E49BD
:1032FC00042005F0D1FFDEE70C4A582100F0D6F887
:10330C00E2E70A4A592100F0D1F8E2E7E431002063
:10331C00E031002094320020913302003D33020052
:10332C0000B00040B0660300A96603007466030099
:10333C0010B582B00C460E4B1B6813F4804F03D0B3
:10334C000C4B1B68032B06D82146112000F024F9E6
:10335C00204602B010BD084BD3F804350191074A42
:10336C0000926F220649042005F096FFECE700BF9F
:10337C00E4310020E031002000B000400067030081
:10338C00A966030008B5112000F0FAF808BD00008A
:10339C0000B583B0104B1B6813F4804F03D00F4B58
:1033AC001B68032B0DD800214FF4F01000F005F929
:1033BC000422C8214FF4003000F00AF903B05DF884
:1033CC0004FB074BD3F80435064A00925F220649EA
:1033DC00042005F061FFE6E7E4310020E031002035
:1033EC0000B0004058660300A966030000B583B026
:1033FC001A4A04214FF4C04005F032FF184B1B68E9
:10340C0013F4804F0DD0174B1B68032B09D9164BA7
:10341C00D3F80435154A009277221549042005F09B
:10342C003BFF00F031F91348012380F82530C384A9
:10343C0080F82930104A8263104A4260104A826038
:10344C0003740723C3740CF0A5F910B903F0C6FC80
:10345C00FCE70C4A8E2100F029F8F7E741920200B4
:10346C00E4310020E031002000B00040D0660300C1
:10347C00A966030058320020186703009D33020030
:10348C00AD3202007466030048DF704761DF70479D
:10349C004FF0A0434FF4F012C3F80825C3F80C25E5
:1034AC00EFF3108372B60028FDD1704700B585B0DC
:1034BC000D4B1B6813F4804F02D00C4B1B682BB9BF
:1034CC000120FFF7E5FF05B05DF804FB084BD3F8CE
:1034DC000435039002910192064A00924822064953
:1034EC00012005F0D9FEEBE7E4310020E0310020AB
:1034FC0000B00040386703007567030000B583B067
:10350C000A4B1B6813F4804F05D10120FFF7C0FF55
:10351C0003B05DF804FB064BD3F80435054A009262
:10352C0054220549002005F0B7FEEEE7E4310020F7
:10353C0000B00040286703007567030000B583B036
:10354C0002E0019803F02EFD01A8FFF79DFF002873
:10355C00F7D04F23ADF8023005E0084803F020FD0A
:10356C004F23ADF802300DF102010448FFF78EFF36
:10357C000028F2D003B05DF804FB00BFA03200209D
:10358C004FF0A043D3F80425012303FA00F00242C4
:10359C000CBF18460020704739B9012303FA00F01C
:1035AC004FF0A043C3F808057047012303FA00F05D
:1035BC004FF0A043C3F80C05704721B94FF0A0435E
:1035CC00C3F8080570474FF0A043C3F80C057047CB
:1035DC0070B402F0FE02002400E0013494424CD29C
:1035EC004FF0A045D5F804354340C5F804354FF4E9
:1035FC007A7303FB01F3002BEFD0214D2D68214E84
:10360C0000BF00BF00BF00BF00BF00BF00BF00BFB6
:10361C00B5422FD000BF00BF00BF00BF00BF00BF2E
:10362C0000BF00BF00BF00BF00BF00BF00BF00BF96
:10363C0000BF00BF00BF00BF00BF00BF00BF00BF86
:10364C0000BF00BF00BF00BF00BF00BF00BF00BF76
:10365C0000BF00BF00BF00BF00BF00BF00BF00BF66
:10366C0000BF00BF00BF00BF00BF00BF00BF00BF56
:10367C0000BF00BF013BC3D1AFE770BC704700BFB8
:10368C00F03100200024F40011230BE04FF0A04196
:10369C0003F5E072032041F8220001229A40C1F8A0
:1036AC0008250133142BF1D97047000010B5002404
:1036BC00144BC3F87C4103E0D11A14E00134E4B29A
:1036CC00032C1ED84FF0A043D3F810250E4B195DD8
:1036DC0001238B409343F1D00C4B1B680C4AD2F85E
:1036EC000425991AE8D441F69A139942E6D9084B65
:1036FC00D3F80425054B1A60064B1B6820469847E7
:10370C00DCE710BD00600040A06703000033002020
:10371C0000B00040FC3200200620704708B5074B73
:10372C001B780BB9062008BD054B1B680BB19847DD
:10373C0008BD0146034802F02DFC08BD18330020DB
:10374C001C33002004330020064B074A92E8030088
:10375C0083E803000833443292E8030083E8030053
:10376C00704700BF203300206000001000487047F5
:10377C002033002043DF704770B58CB003460E46F3
:10378C0015466C46006859689A68DB680FC4306847
:10379C007168B268F3680FC46846FFF7EBFF08ACBA
:1037AC000FCC28606960AA60EB600CB070BD0000A3
:1037BC00002308E0074901EBC3000022428042606D
:1037CC0001F8332001331F2BF4D90022024B1A606D
:1037DC00704700BF303300203034002030B4054631
:1037EC000F4B1B6800240AE01F230E4A12F833000B
:1037FC00A0B102EBC3025288AA4207D001341F2C9D
:10380C000BD85A1E002BEFD01346EEE7054A02EBFD
:10381C00C30252688A42F1D100E0002030BC7047EC
:10382C00303400203033002030B40A4A13680A4C7C
:10383C0004EBC30568806960012104F833100B4464
:10384C001360202B01D030BC70470022014B1A6052
:10385C00F9E700BF3034002030330020C0F30C03F4
:10386C008B4202D3C91A08447047C91A0844A0F500
:10387C0000507047C37D002B41D083780A7802F04A
:10388C00800203F07F0313430B7002780B7803F074
:10389C007F0343EAC2130B7003787BB330B44378D5
:1038AC00082B14BF002201224B7803F07F0343EA5C
:1038BC00C2134B70858803F08003C5F38614234331
:1038CC004B708A7802F0030242EA8502D2B28A7007
:1038DC00857902F0FC02C5F3C10422438A70CB78CF
:1038EC0003F01F0343EA4513DBB2CB70C27903F03C
:1038FC00E00302F01F021343CB7030BC7047837897
:10390C000A7802F0BF029B0103F0400313430B70D3
:10391C00C27803F0C00302F03F0213430B70B4E70C
:10392C0030B405460023184607E06C22104C02FB0D
:10393C000342928AAA4210D00133032B16DC6C226C
:10394C000B4C02FB034292F84420002AEDD10028D4
:10395C00F2D16C2202FB0340EEE76C2202FB034225
:10396C0092888A42E8D16C2000FB034030BC70473F
:10397C009C34002010B403460A4689694978C1700A
:10398C009169097881F00101817091694162118A14
:10399C000B2903D8D17A49B3012100E00121197018
:1039AC0041B31649897D19BB04205870118A014412
:1039BC000B31134880FB0140C917C1EB6001013981
:1039CC00D971002199710021D97503F10C0492E889
:1039DC00030084E803005169196211899982917A74
:1039EC009975D2699A625DF8044B70470021D6E74D
:1039FC000820DAE704215970E5E700BF8434002081
:103A0C00ABAAAA2A70B58CB006460D4614462C22D9
:103A1C00002101A812F0B6FD17238DF80430ADF883
:103A2C0008604FF0000365F300038DF80A308DF841
:103A3C000B4001A801F0B8FA0CB070BD30B58DB0D8
:103A4C0005460C462C22002101A812F09BFD1823E0
:103A5C008DF8043002958DF80C4001A801F0A4FA01
:103A6C000DB030BD00B58DB043784BB9084B9A42C0
:103A7C0006D001238DF80430029201A801F094FACB
:103A8C00044B186804F024FC0DB05DF804FB00BF77
:103A9C005EE6655E38340020F0B40D684C688F68C3
:103AAC00CE68D5601461576196610D694C69D5611A
:103ABC0014620378DB091370D17DF9B1037803F03C
:103ACC007F0393700023537013789BB143789B0151
:103ADC0003F4FE53817843EA910393808378DB00EF
:103AEC0003F01803C17843EA51139371C37803F0C0
:103AFC001F03D37100235362F0BC70470178C1F3EC
:103B0C0080119170017801F03F01D17043B143787D
:103B1C0013F0800F02D008235370D5E70423FBE782
:103B2C0004235370D0E770B50C461E4603788BB156
:103B3C0004252A44A26000F10C032360836A6360AD
:103B4C00204605F0CDF8024610B923691D443560B6
:103B5C00104670BD0125ECE72DE9F0418EB00D4605
:103B6C0016461C46804600282DD0002D33D0002C44
:103B7C0039D0636A0233059304F10C00A378002B4F
:103B8C0039D00121627801AF3B46082A14BF0022CC
:103B9C00012204F035FC0697CDF81C80B2B2ADF8CA
:103BAC0020200B9515440C9563788DF83430237BCD
:103BBC00022B22D00023ADF8283005A804F018FC05
:103BCC000EB0BDE8F0817846144B1B680BB19847DA
:103BDC00CBE700DEC9E77846104B1B680BB1984762
:103BEC00C5E700DEC3E778460C4B1B680BB1984762
:103BFC00BFE700DEBDE70221C4E723692BB12369CF
:103C0C0009931023ADF82830D7E77846034B1B688F
:103C1C000BB19847F3E700DEF1E700BF0449002041
:103C2C002DE9F04186B004460D4601EB41039F009F
:103C3C00C379994235D00C26A5716B46324601A941
:103C4C002046FFF770FF804628BB94F84E30ABB986
:103C5C0025B17846164B1B683BB39847A369C3F351
:103C6C000C03A380B4F84610627823468A1AA16E1E
:103C7C000846FFF771FF012384F84E300599204662
:103C8C00FFF7F8FDA16E32463944009812F050FC53
:103C9C0001A805F04FF8B8FA88F0400906B0BDE865
:103CAC00F081B0F84660F61BC6E700DED6E700BF31
:103CBC000449002070B5054690F84C40002601E000
:103CCC000134E4B2EB799C420ED8AA6C0123A340D8
:103CDC001A42F5D121462846FFF7A2FF20B1013642
:103CEC00631C85F84C30EBE7304670BDF0B587B0FF
:103CFC00447814440F2C03D90924204607B0F0BD96
:103D0C0016460F4605466B46224601A9FFF70BFFE8
:103D1C0004460028F1D105992846FFF7ABFD2B4648
:103D2C00324600993846FFF717FF01A805F002F854
:103D3C00E3E7000010B5044690F84430012B04D0A2
:103D4C0078460E4B1B687BB19847237B012B0DD01B
:103D5C000B4BDB68A36303F043FDA16B014404F13F
:103D6C002C0003F099FC10BD00DEEEE7A37D044AA5
:103D7C00D168126902FB0313A363ECE7044900202A
:103D8C008434002038B5002400E00134032C13D80F
:103D9C006C230A4A03FB042393F84430012BF4D11F
:103DAC006C2505FB04252846FFF784FF0028ECD082
:103DBC002846FFF7BFFFE8E738BD00BF9C34002062
:103DCC0038B5044690F84430022B04D07846084BA2
:103DDC001B6853B19847074B1D6803F001FD291868
:103DEC0004F12C0003F058FC38BD00DEF3E700BFF3
:103DFC00044900208434002038B5044690F844303F
:103E0C00022B04D078460B4B1B688BB198470A4B9E
:103E1C005D7D5A689B6803FB052503F0E1FC4119A5
:103E2C0004F14C0003F038FC012384F8643038BDF5
:103E3C0000DEECE7044900208434002070B596B015
:103E4C00037B012B03D00025284616B070BD002340
:103E5C008DF82E308DF82D3014938DF82C30344A8B
:103E6C00159201228DF843208DF83820828AADF806
:103E7C003A200F93C389ADF84030837D002B51D18C
:103E8C008DF842300E460446036A139303AB0622A8
:103E9C0006A90BA8FFF747FE05460028D4D10A99BE
:103EAC000BA8FFF7E7FC039AA488117801F08000B7
:103EBC00C4F3861101431170537803F0030343EAF2
:103ECC0084035370039B320E9A70320CDA70320AF0
:103EDC001A715E7107238DF8103000238DF81130A4
:103EEC0006238DF81230039B059304A8FFF716FCEC
:103EFC00A0B1104B1B6813F0200F0FD00E4B1B689A
:103F0C00012B0BD90D4BD3F8043501900C4A0092C0
:103F1C0040F24F220B49022005F0BEF906A804F02E
:103F2C0009FF91E7084B5B7D8DF84230AAE700BF93
:103F3C005EE6655EE4310020E031002000B0004018
:103F4C00D4670300C66703008434002010B50C4608
:103F5C0091F84430022B04D07846094B1B6863B1AE
:103F6C009847022384F86430A16C2046FFF766FF63
:103F7C0010B9002384F8643010BD00DEF1E700BFF7
:103F8C000449002010B504460C4B1B68806E984702
:103F9C000023A36604F12C0003F048FB94F8443092
:103FAC00022B05D0002084F8440002F02DFB10BD3C
:103FBC0004F14C0003F03AFBF4E700BF3C34002062
:103FCC0010B58CB0044690F84430012B04D07846E0
:103FDC00094B1B686BB1984701238DF80430236D96
:103FEC00029301A800F0E0FF2046FFF7CBFF0CB0D6
:103FFC0010BD00DEF0E700BF0449002030B585B0ED
:10400C000D460446002859D008238DF808308DF849
:10401C00095000238DF80A30039302A8FFF77EFBAA
:10402C00A0B1334B1B6813F0200F0FD0314B1B6822
:10403C00012B0BD9304BD3F8043501902F4A009249
:10404C004FF4DC722E49022005F026F923782BB9A7
:10405C0078462C4B1B68002B38D0984700238DF8E2
:10406C000830E36903F001038DF80930A38AADF839
:10407C000A30A188A069FFF7F1FB0390224A13686C
:10408C00591C116003F00702204B03EBC20304AA76
:10409C0012E9030083E803002946206DFFF7CEFCEC
:1040AC002046FFF76FFF124B1B6813F0040F03D071
:1040BC00104B1B68032B0BD805B030BD7846114B49
:1040CC001B680BB198479FE700DE9DE700DEC5E754
:1040DC00094BD3F8043594F8442001920C4A009211
:1040EC004FF4DF720649042005F0D6F8E4E700BF70
:1040FC00E4310020E031002000B00040D467030020
:10410C00C66703000449002080340020403400209E
:10411C000468030008B508460021FFF76FFF08BDCF
:10412C0010B50C4691F84430012B04D078460F4B57
:10413C001B6853B1984794F84D306BB9237B012B16
:10414C0005D02046FFF73CFF10BD00DEF3E7002151
:10415C002046FFF753FF10BD013B84F84D30002380
:10416C0084F84C302046FFF7A5FD10BD0449002013
:10417C00F0B585B005460E460178890101F4FE5173
:10418C004078AC78EB781B0443EA04632C7943EA5F
:10419C0004236C791C4341EA9001D089FFF7C0FBE2
:1041AC0020B1074690F84430012B15D02F4B1B68DB
:1041BC0013F0040F0ED02E4B1B68012B0AD92D4B7C
:1041CC00D3F804352C4A00924FF492622B4902200A
:1041DC0005F062F805B0F0BD06238DF80830002319
:1041EC008DF809308DF80A60039502A8FFF796FA4E
:1041FC00A0B11E4B1B6813F0200F0FD01C4B1B687B
:10420C00012B0BD91B4BD3F8043501901C4A00929F
:10421C0040F294421949022005F03EF8BD6C25434A
:10422C00BD64BCB13B7823B97846164B1B68B3B15F
:10423C009847FB795A1C01239340013B9D4210D0B7
:10424C00002387F84C303846FFF734FD3846FFF72B
:10425C0071FDBFE703213846FFF7D0FEBAE700DE59
:10426C00E7E73846FFF7ACFEB4E700BFE4310020C7
:10427C00E031002000B0004030680300C667030046
:10428C00D46703000449002010B5947804B110BD24
:10429C00FFF76EFFFBE700002DE9F04104460D46E9
:1042AC0016461F46531EDBB2012B05D97846334BFD
:1042BC001B68002B49D09847A36E2BB178462F4B27
:1042CC001B68002B43D098472D4B1B6838469847EA
:1042DC00A06600284ED02B46224605F12001D3F8CB
:1042EC000080D3F804C0D3F808E0D868C2F8008086
:1042FC00C2F804C0C2F808E0D060103310328B4210
:10430C00EDD1186859689B68106051609360002368
:10431C00A364A4F84670A988A869FFF79FFAA06166
:10432C00012E16D0174BA362002384F86430164B71
:10433C006365E465154B6363E463012002F064F983
:10434C0084F844600120BDE8F08100DEB4E700DEB3
:10435C00BAE70F4B1B7D84F84D30002384F84E30A8
:10436C0084F84C30AB6A2365064BA362094B63633C
:10437C00E463E2E70020BDE8F08100BF04490020BF
:10438C00343400205EE6655E593F02002141020094
:10439C00843400202D410200F0B583B0CB79013379
:1043AC0003EB43039C00B4F5C07F19D91F4B1B686A
:1043BC0013F0040F38D01E4B1B681BB90026304677
:1043CC0003B0F0BD1B4BD3F8043501941A4A00928C
:1043DC0040F25D221949012004F05EFF0026EEE751
:1043EC0007460D46C96901F00101A88A06F070FA6A
:1043FC00064688B9E969002201F00101A88AFFF795
:10440C0001FB002EDBD100213846FFF717FD0221FE
:10441C000020FFF713FBD2E7234602222946384639
:10442C00FFF73AFF0646ECE70026C8E7E431002028
:10443C00E031002000B000401C680300C667030098
:10444C0038B505468188808AFFF76AFA044610B1B0
:10445C0090F844300BB1204638BD2946FFF79CFF3D
:10446C000028F8D10024F6E700B585B000238DF8BC
:10447C000F3098B10346084602330B600DF10F0163
:10448C0003F0BAFF9DF80F3043B10D4B1B6813F0CE
:10449C00040F03D00B4B1B68032B04D89DF80F00A3
:1044AC0005B05DF804FB084BD3F80435074A0092BD
:1044BC0040F201320649042004F0EEFEEEE700BFA4
:1044CC00E4310020E031002000B000409868030087
:1044DC00C66703002DE9F0438FB004460E4615461F
:1044EC001F46D0F81890037823B181884846FFF70F
:1044FC00B5F9A06104F10C00A378002B3AD001218E
:10450C0062780DF128084346082A14BF00220122C4
:10451C0003F076FFC4F81890CDF808800396637802
:10452C00EA1A92B2ADF810203244089207978DF82F
:10453C0024300023ADF81830237B022B1CD0A37839
:10454C006BB3237B022B1BD02546002345F8243F5D
:10455C002A46E178206A0AF037FF606A98B101A90F
:10456C00FFF782FF00283CD12A46E178206A0AF046
:10457C002BFFF2E70221C3E71023ADF81830DEE77A
:10458C0023690593E0E7237B022B2ED104F10C0168
:10459C00E0890AF0ABFF0028D3D1052022E00023EC
:1045AC006362237B012B0DD02146002341F8243F6D
:1045BC00A08A0AF031FF01A9606AFFF755FF70B9B4
:1045CC0005200FE004F12401E0890AF025FF01A980
:1045DC00606AFFF749FF0028E6D0002002E00020C7
:1045EC0000E000200FB0BDE8F0830520FAE70000E2
:1045FC00F0B5F1B006460D4614461F4610AB0A4600
:10460C0001462046FFF766FF00282FD0454B1B685C
:10461C0013F0040F03D0444B1B68052B74D80323F1
:10462C008DF81430A378002B7AD000238DF8153038
:10463C008DF81650069605A8FFF770F8002861D083
:10464C00384B1B6813F0200F5CD0374B1B68012BC9
:10465C0058D9364BD3F804350190354A009240F2C4
:10466C00E3423449022004F017FE4BE001238DF89D
:10467C00143000238DF815306378EB1A8DF8163052
:10468C00069605A8FFF74AF8A0B1264B1B6813F055
:10469C00200F0FD0244B1B68012B0BD9234BD3F8C5
:1046AC0004350190224A009240F2CA42214902206C
:1046BC0004F0F2FD03AB01228DF80C20A28AADF8B8
:1046CC000E20002204928DF8142010AA0692627813
:1046DC00AD1AADF81C5008AA93E8030082E8030059
:1046EC000AAB04F10C0292E8030083E80300A37DFB
:1046FC008DF83830236A0C93636A0D930F9705A8D5
:10470C0000F052FC71B0F0BD084BD3F804350A4AE6
:10471C00009240F2DD420749062004F0BDFD7EE721
:10472C00022383E7E4310020E031002000B0004098
:10473C00D4670300C6670300BC68030010B5D47DC2
:10474C0014B9FFF755FF10BDFFF79EFD10BD00001B
:10475C0043781344B3F5C07F01D9092070472DE984
:10476C00F04385B004AFEFF3108E72B60024032C27
:10477C000DDC6C25424E05FB046595F844500DB1DB
:10478C000134F4E76C263E4D06FB045400E0002493
:10479C00BEF1000F00D162B6002C6CD015460E464F
:1047AC00014601222046FFF777FD08B9042063E09B
:1047BC002A463146A06E11F0BBFE324B1B6813F03B
:1047CC00040F03D0304B1B68032B10D82D4B1B68E8
:1047DC0013F0040F03D02C4B1B68032B13D820466B
:1047EC00FFF768FA2046FFF7A5FA002044E0274BB4
:1047FC00D3F80435264A009240F2CE3225490420E3
:10480C0004F04AFDE2E76D46B4F846C04FEA4C03AB
:10481C00083323F00703ADEB030D0DF11008C6466A
:10482C00002312E0A26ED25C59004FEA12191A480A
:10483C00066816F809600EF81360013102F00F02D9
:10484C000068825C0EF8012001336345EAD3002333
:10485C0008F81C300D4BD3F80435CDF808800F4AFE
:10486C0001920F4A009240F2D3320A49042004F01C
:10487C0013FDAD46B3E704200437BD46BDE8F08315
:10488C009C340020E4310020E031002000B00040D6
:10489C0060680300C6670300E831002084680300E9
:1048AC009068030010B582B00446037823B97846AB
:1048BC00144B1B681BB3984701238DF80030E36938
:1048CC0003F001038DF80130A38AADF80230A18802
:1048DC00A069FEF7C3FF01900B4A1368591C1160C5
:1048EC0003F00702094B03EBC20302AA12E903000F
:1048FC0083E803002046FFF745FB02B010BD00DE45
:10490C00DAE700BF04490020803400204034002046
:10491C0038B500240CE000DE6C231F4A03FB042393
:10492C00DB795A1C01239340013B9D422BD001346F
:10493C00032C2FD86C23184A03FB042393F8443020
:10494C00022BF4D16C2303FB042393F86430022B69
:10495C00EDD16C2000FB0420816CFFF76FFA00286E
:10496C00E5D10D4A6C2303FB04F3D11881F86400E4
:10497C008D6CD35C002BCFD17846084B1B68002B79
:10498C00C9D09847C8E76C20034B00FB0430FFF7F5
:10499C0089FFCCE738BD00BF9C34002004490020BF
:1049AC0008B5FFF7EFF9FFF7B3FF08BD2DE9F043AA
:1049BC0083B081460F4614469846137823B978463F
:1049CC00664B1B6853B19847E56905F00105A68A4B
:1049DC00A188A069FEF742FF002302E000DEF3E7A6
:1049EC000133072B1DD85E4A1268934216D25D4ADA
:1049FC0002EBC30252689042F2D15A4A02EBC30254
:104A0C0052889642ECD1574A02EBC3025278954237
:104A1C00E6D1544A12F83330012204E000231A463E
:104A2C0001E000231A46B2B173B1237823B978465A
:104A3C004A4B1B6833B19847E1794B1C01219940D3
:104A4C00013902E000DEF7E700212046FFF7F6F916
:104A5C0003B0BDE8F0832046FFF7F2FC054648B3EF
:104A6C00A26983699A42F3D3E269C3699A42EFD18E
:104A7C003D4B1B6813F0040F03D03C4B1B68032BFE
:104A8C001CD82846FFF79CF92B7B012B24D0AA6C51
:104A9C00A17901238B401A42DAD11343AB64A2797A
:104AAC00EB799A4220D00C2F25D004212846FFF711
:104ABC00A5FACDE70221FEF7C1FFC9E72C4BD3F8CD
:104ACC000435A27901922B4A009240F2C2222A4963
:104ADC00042004F0E1FBD4E795F86430002BD6D128
:104AEC002846FFF789F9D2E703EB43039A0093B208
:104AFC003B44A5F84630A86EA37903EB43039C0016
:104B0C003A464946204411F013FDAC6C2B7823B97E
:104B1C007846124B1B68F3B19847EB795A1C01236A
:104B2C009340013B9C4293D143462A46B5F846102C
:104B3C00A86EFFF703FE022385F86430A96C2846A3
:104B4C00FFF77CF9002883D1002385F864302846D0
:104B5C00FFF7A8FE7CE700DEDFE700BF044900207A
:104B6C008034002040340020E4310020E03100206B
:104B7C0000B00040AC680300C667030008B50649E6
:104B8C00064800F049F830B17846054B1B680BB16C
:104B9C00984708BD00DE08BD49640300B1630300FB
:104BAC000449002008B5FFF7E9FF4FF4D872002143
:104BBC00104811F0E7FC05F0DDFE00220E4B1A60E8
:104BCC000E4B0F4919600F4959604CF250319960E6
:104BDC000D48D8601961042119759A7508225A7507
:104BEC000A4803F04BFB0A4B18600A4806F0A8F879
:104BFC0008BD00BF9C340020803400208434002089
:104C0C0080969800F049020020A10700AD490200EF
:104C1C0038340020713A020008B50346B0FA80F02F
:104C2C0040090A46B1FA81F14909884201D00E20A7
:104C3C0008BD4BB1EFF3108072B607490B60074B00
:104C4C001A6038B962B608BD002AF3D1FFF796FF97
:104C5C00002008BD002008BD343400203C34002066
:104C6C002DE9F04192B0002800F090800746002A10
:104C7C0000F08E80984614460E4600231093119334
:104C8C0010A950880AF032FC18BB03238DF80C30A5
:104C9C0004238DF80D308DF80E60049703A8FEF7F1
:104CAC003DFDA0B13D4B1B6813F0200F0FD03C4BCA
:104CBC001B68012B0BD93B4BD3F8043501903A4AB6
:104CCC00009240F279523949022004F0E5FA0025AD
:104CDC005FE0226902F00102E168208905F014FE10
:104CEC0018B303238DF80C3005238DF80D308DF897
:104CFC000E60049703A8FEF711FDA0B1274B1B68AB
:104D0C0013F0200F0FD0264B1B68012B0BD9254B12
:104D1C00D3F804350190244A009240F2845223497E
:104D2C00022004F0B9FA002533E0226902F00102F6
:104D3C00E168208905F092FD0546C0B905AA214617
:104D4C003846FEF7A9FE08AB12AA12E9030083E865
:104D5C00030003F053FA9DF8143083B1434605AABF
:104D6C00311F381DFFF722FE03F068FA11E02169AC
:104D7C00002201F001012089FEF744FE09E04346C0
:104D8C0005AA711E781CFFF7D9FCEDE70E2500E093
:104D9C000E25284612B0BDE8F08100BFE43100209A
:104DAC00E031002000B00040D4670300C667030068
:104DBC00002836D010B58CB00446C268002A32D018
:104DCC008269002A32D04269002A31D0008901F070
:104DDC0073FF012801D0102026E023780BB9102096
:104DEC0022E0022B05D094F90A30002B06DA0720BA
:104DFC001AE06368002BF6D1102015E0214601A8BB
:104E0C00FEF7B8FD9DF804302BB9228AE16801A8A1
:104E1C00FEF76CFF08E0228AE16801A8FFF798FC16
:104E2C0002E00E2070470E200CB010BD0E20FBE7E8
:104E3C000E20F9E7002969D0A0F59670072867D8ED
:104E4C00DFE800F004101E2B3947515B4A68314BE8
:104E5C00134431498B4201D9072070472F4B1A60FC
:104E6C00002070474A68A2F51233A3F5F8732C4959
:104E7C008B4201D907207047284B5A60002070479D
:104E8C004A68A2F54343503B26498B4201D907207F
:104E9C007047224B9A60002070474A68A2F5433352
:104EAC00A3F5A07320498B4201D9072070471B4BF7
:104EBC00DA60002070474A68A2F54333A3F5A0736B
:104ECC0019498B4201D907207047144B1A610020F5
:104EDC0070474B689A1EFD2A01D9072070470F4A6C
:104EEC001375002070474B685A1E7E2A01D9072083
:104EFC0070470A4A5375002070474B68012B01D943
:104F0C0007207047054A9375002070470E207047A4
:104F1C0005207047806967FF80778E0684340020F7
:104F2C00904C960030D3970040899500002934D0DE
:104F3C0000220A604A60A0F5967007282FD8DFE897
:104F4C0000F004090E13181D2227164A12684A6035
:104F5C0000207047134A52684A6000207047114A7B
:104F6C0092684A60002070470E4AD2684A6000205E
:104F7C0070470C4A12694A6000207047094A127D3A
:104F8C004A6000207047074A527D4A6000207047F3
:104F9C00044A927D4A60002070470E20704705201D
:104FAC00704700BF8434002038B5054618B10A4B51
:104FBC001C686CB938BD7846084B1B680BB1984718
:104FCC00F5E700DEF3E754F8043C284698472468DC
:104FDC00002CF8D138BD00BF4C360020044900200D
:104FEC0070B5064660B1351D12D01C4B1B689D4236
:104FFC0016D01A4B1C68E4B91D600023736070BD99
:10500C007846174B1B680BB19847ECE700DEEAE7D4
:10501C007846134B1B680BB19847E6E700DEE4E7D4
:10502C0078460F4B1B680BB19847E2E700DEE0E7D0
:10503C001C4623680BB1A542FAD134B12DB1A5425F
:10504C0002D023687360256070BD7846044B1B68E2
:10505C000BB19847F3E700DEF1E700BF4C360020B8
:10506C000449002038B5054658B12C1D11D0144BFD
:10507C001A68F2B1944215D16A681A6000236B6009
:10508C0038BD78460F4B1B680BB19847EDE700DE37
:10509C00EBE778460B4B1B680BB19847E7E700DE54
:1050AC00E5E71A4613680BB19C42FAD10AB19C424F
:1050BC0000D038BD6B68136000236B60F9E700BF4C
:1050CC004C3600200449002008B503881A4492B2DB
:1050DC0002808A4208D00388994209D87846054B49
:1050EC001B6823B1984708BD00230380F3E700DE5B
:1050FC0008BD00BF0449002038B504460D4683683E
:10510C00828813448B4204D078460F4B1B68B3B192
:10511C0098472A880432204692B230F8041BFFF7D5
:10512C00D3FF2388A2889B1A9BB2042B04D8784601
:10513C00054B1B682BB198470023AB7038BD00DEC4
:10514C00E7E700DEF8E700BF044900200B881944AC
:10515C000431826803881344994201D00846704791
:10516C001146FBE738B504460D46FFF7EFFFEFF3AA
:10517C00108172B6A26863881344984204D001B9B6
:10518C0062B60423AB7038BDAA1A628001B962B64C
:10519C000023AB7038BD8368194488787047008849
:1051AC00043880B27047000010B50B88934210D9B8
:1051BC009B1A9BB244884CB90488E31A43800A803A
:1051CC0042888368134400229A7010BDE31A43800E
:1051DC00F5E7934206D07846034B1B680BB1984712
:1051EC0010BD00DE10BD00BF0449002038B50446D8
:1051FC0043888268D518D1520123AB700A1D92B234
:10520C0030F8021BFFF760FF6288A3889A4203D034
:10521C00A368134400229A70284638BD70B5164610
:10522C00091A8DB214880434A4B2A54204D278466B
:10523C00064B1B683BB198472C1BA4B2042C01D81D
:10524C00043D358070BD00DEF6E700BF0449002048
:10525C0083888B4201D20420704710B44288816845
:10526C008C1803889B1A9BB2043B8B520423A370AB
:10527C000023438018465DF8044B704738B504464C
:10528C000D468188FFF787FF08B1042038BD2388BD
:10529C0062889B1AAB4201DB002038BD29462046B0
:1052AC00FFF7D6FF38BD08B5038842889B1A8B429E
:1052BC0001DB002008BDFFF7CBFF08BD83884288C7
:1052CC009B1A8B4201DA042070470020704770B59E
:1052DC0004460E460988043189B2428883889A4272
:1052EC000FD09A4211D8FFF7E9FF05463DB9608807
:1052FC00A188884200D321883246FFF78FFF2846C9
:10530C0070BDFFF7BBFF0546F0E7FFF7CCFF054686
:10531C00ECE710B504468088A168014405E02046FE
:10532C00FFF7EAFEA088A16801448B78042BF6D025
:10533C00084610BD70B5064615460C4600294FD0E0
:10534C00002E55D0B4F1005F08D94FF08053D3F83C
:10535C000C3103F50023B4EB832F11D3B4F5000FFC
:10536C0008D94FF08053D3F80C3103F50053B4EB4C
:10537C00832F05D37846254B1B68002B40D09847CC
:10538C006B1E2344B3F1005F08D94FF08052D2F862
:10539C000C2102F50022B3EB822F11D3B3F5000FD1
:1053AC0008D94FF08052D2F80C2102F50052B3EB21
:1053BC00822F05D37846154B1B68002B22D09847BB
:1053CC00042D04D87846114B1B68EBB198473580F7
:1053DC0000237380B380B460043D2580A37070BD3E
:1053EC0078460A4B1B680BB19847A9E700DEA7E784
:1053FC007846064B1B680BB19847A3E700DEA1E784
:10540C0000DEBDE700DEDBE700DEE0E7044900205C
:10541C0070B504468088A1680144EFF3108672B61B
:10542C008D78032D0AD12046FFF790FE014605E04A
:10543C0004238B702046FFF789FE01468B78012BE5
:10544C0005D0A368CB1A9BB262889A42F0D1032D87
:10545C0002D02046FFF75DFF06B962B670BD0000B2
:10546C00F0B583B00D46ADF80620064638B175B1DF
:10547C00BDF806409CB90924204603B0F0BD78461F
:10548C00174B1B680BB19847F1E700DEEFE7784646
:10549C00134B1B680BB19847EAE700DEE8E7304690
:1054AC00FFF77DFE844201D90924E5E7E31C9BB29A
:1054BC0023F0030302A921F8023DEFF3108772B623
:1054CC003046FFF704FF044618B1002FD4D162B662
:1054DC00D2E7BDF806103046FFF788FE2860F4E7E7
:1054EC000449002070B582B00C46ADF80620054684
:1054FC0000283CD0002C42D0A378012B05D0784654
:10550C002E4B1B68002B42D098472288BDF80630E2
:10551C009A4205D27846294B1B68002B39D0984704
:10552C00BDF806302BB97846244B1B68002B32D0C3
:10553C009847BDF8063003339BB223F003039BB2AC
:10554C00ADF80630228893420DD021462846FFF74D
:10555C00FDFDEFF3108672B6AA686B88134498426F
:10556C001BD006B962B60223A37002B070BD784698
:10557C00124B1B680BB19847BCE700DEBAE77846C4
:10558C000E4B1B680BB19847B6E700DEB4E700DEA4
:10559C00BBE700DEC4E700DECBE7A01A80B2A98827
:1055AC00814200D829880DF10602FFF737FEBDF8BD
:1055BC00062021462846FFF7F7FDD2E704490020D4
:1055CC0038B50C46054650B18CB12846FFF7A1FE04
:1055DC008378022B13D0032B16D0052038BD7846C8
:1055EC000E4B1B680BB19847EEE700DEECE77846F4
:1055FC000A4B1B680BB19847E7E700DEE5E703238E
:10560C0083702060002038BD7846044B1B6813B1B2
:10561C009847002038BD00DE002038BD044900202A
:10562C0010B5044638B12046FFF773FE8378022B81
:10563C0009D0002010BD7846044B1B680BB198476D
:10564C00F1E700DEEFE7012010BD00BF04490020A8
:10565C0038B50546D0B12846FFF75BFE0446807886
:10566C00022814BF0020012021468B78033BDBB2BB
:10567C00012B0AD82846FFF769FD014680780228DD
:10568C0014BF002001208C42EFD138BD7846034B6B
:10569C001B680BB19847DEE700DEDCE7044900200D
:1056AC0038B50C46054650B18CB1A378012B16D0F9
:1056BC00032B19D121462846FFF71EFD38BD78462D
:1056CC000D4B1B680BB19847EEE700DEECE7784614
:1056DC00094B1B680BB19847E7E700DEE5E721466D
:1056EC002846FFF73FFD38BD7846034B1B680BB1CE
:1056FC00984738BD00DE38BD0449002008B50023AA
:10570C00092B09D8084A52F82320824201D00133D0
:10571C00F6E7064A536008BD7846054B1B680BB18B
:10572C00984708BD00DE08BD2469030050360020F0
:10573C000449002008B5064B986800221A605A608C
:10574C009A60DA601A615A619A6104F04DFE08BDE4
:10575C005036002010B5294BDB688BB1274B1B7ED4
:10576C0023B17846264B1B6893B19847234B5B6853
:10577C00092B1DD97846224B1B685BB1984717E063
:10578C0078461F4B1B680BB19847E7E700DEE5E74F
:10579C0000DEEBE700DE0BE000DE02E00022174B40
:1057AC005A60012C01D0032C26D1144B1B7E1BBB41
:1057BC00124B5A68134B53F8223098470446022870
:1057CC0010D00328EAD00128EBD10C4A53680133DE
:1057DC005360092BE5D97846094B1B68002BDBD0AD
:1057EC009847DEE7054B1B7E1BB10222034B1A7058
:1057FC00D7E7FFF79FFFD4E710BD00BF503600205E
:10580C000449002024690300104B1B681B685A1EB6
:10581C0012F1030F18D8C3F30B020AB10020704722
:10582C0010B50B4AD3600023137653760124147001
:10583C0093600848FFF762FF0749204601F05EF9C4
:10584C00FFF788FF204610BD0020704770360020FF
:10585C0050360020A55802006958020008B50B7894
:10586C00032B06D00B4B1B78012B06D0022B0BD035
:10587C0008BD0022074B1A76F4E7064B1B7E002B63
:10588C00F6D1FFF767FF08BD0B78032BF0D1FFF7BC
:10589C0051FFEDE75036002000B585B00A4BDB68B0
:1058AC0002228DF8002001934FF480530293074A93
:1058BC006946012001F038F918B1002005B05DF8F7
:1058CC0004FB0120FAE700BF503600206C360020A4
:1058DC0000B585B00A4B1B6802228DF8002001939D
:1058EC004FF480530293074A6946012001F01CF9DA
:1058FC0018B1002005B05DF804FB0120FAE700BFE9
:10590C00703600206C360020154BDA68137951790B
:10591C005B1A03F57F2303F6FF731B0305D002F517
:10592C0080520F4BDA600320704700B585B00D4BE9
:10593C001B6801208DF8000001930B4B039304238B
:10594C0002930A4A694601F0EFF830B90122044B80
:10595C001A76022005B05DF804FB0020FAE700BFC0
:10596C005036002070360020743600206C36002033
:10597C0000B585B00C4BDA680C4B1B680433012066
:10598C008DF800000192039340F6FC730293084AD1
:10599C00694601F0C9F828B90120034B187605B007
:1059AC005DF804FB0020FAE750360020703600202A
:1059BC006C36002000B585B00A4B1B6801208DF8B1
:1059CC0000000193084B039304230293074A694692
:1059DC0001F0AAF818B1002005B05DF804FB012015
:1059EC00FAE700BF703600205C3600206C360020D1
:1059FC0010B584B0114BDA681478114B1B68043362
:105A0C0001208DF800000193039202940D4A69461F
:105A1C0001F08AF880B90A4B1B6804F0FC041C44A2
:105A2C000434064B5C61D9680A780A441A61002276
:105A3C005A76012004B010BD0020FBE75036002040
:105A4C00703600206C36002000B585B0174BDB6833
:105A5C0018784FF6FF7203F58051184405F094F84E
:105A6C00F0B10246114BD9680B780B44984219D00F
:105A7C000E4B5B7E93B10E4B01208DF80000019212
:105A8C000393042302930B4A694601F04DF858B96D
:105A9C000120064B187605B05DF804FB064BEBE7CE
:105AAC000120F8E70120F6E70020F4E7503600204B
:105ABC00BC6A03006C360020B86A030008B50F4BB3
:105ACC00DB681878002203F58051184405F05CF867
:105ADC0008B1012008BD094BDA68137951795B1ABA
:105AEC0003F57F2303F6FF731B0305D002F58052E9
:105AFC00024BDA60032008BD022008BD503600209E
:105B0C0070B584B04F4BDD686B792A79511E8B428E
:105B1C0000F0938005F580510C780C444A490968D3
:105B2C00081D0E790644D31A03F57F2303F6FF7381
:105B3C001B0303F580531D446388013B9BB247F65E
:105B4C00FE6293421AD858E0002456E000DE238807
:105B5C0004EB830323F47F6222F00F02934217D0ED
:105B6C006288B2F5FE4F13D09D42EDD95A88013AA6
:105B7C0092B21C4647F6FE618A423ED92388002B1E
:105B8C00E5D17846314B1B68002BDFD09847DEE718
:105B9C0024F47F6323F00F0303F580531A78134426
:105BAC00E2E700DE238804EB830323F47F6222F018
:105BBC000F02934217D06288B2F5FE4F13D09D426C
:105BCC001AD95A88013A92B21C4647F6FE618A42AB
:105BDC0013D92388002BE5D178461C4B1B68002B6E
:105BEC00DFD09847DEE724F47F6323F00F0303F53F
:105BFC0080531A781344E2E70024DCB1124B196885
:105C0C00628801F58051304604F0BEFF0646B0B103
:105C1C0001200C4B18768DF8000001940C4B03936B
:105C2C00042302930B4A694600F07EFF0028D0D073
:105C3C00002000E0012004B070BD0120FBE7012032
:105C4C00F9E700BF503600207036002004490020D0
:105C5C00B46A03006C360020F0B587B0714B1B6939
:105C6C0023B1704B5B694BB100274CE078466E4B0F
:105C7C001B680BB19847F4E700DEF2E778466A4BF5
:105C8C001B680BB19847EFE700DEEDE700DE2388D9
:105C9C0004EB830323F47F6222F00F02934217D0AC
:105CAC006288B2F5FE4F13D09D421AD95A88013A38
:105CBC0092B21C4647F6FE618A4213D92388002B08
:105CCC00E5D17846584B1B68002BDFD09847DEE7B0
:105CDC0024F47F6424F00F0404F5805423782344C7
:105CEC00E2E70024002C35D100230093019B002B0C
:105CFC006CD10127002C00F08C80628847F6FF7372
:105D0C009A4200F08680474B5B7E002B40F08780E8
:105D1C00002F40F08280434B5A6922F47F6626F0B4
:105D2C000F06B61A06F580561C69DD682B796A7960
:105D3C009B1A03F57F2303F6FF731B0303F58053B4
:105D4C001D44002301936388013B9BB247F6FE621E
:105D5C009342B3D800940EE000DE238804EB830357
:105D6C0023F47F6222F00F02934226D06288B2F5B0
:105D7C00FE4F22D01C46A542B8D92388019A02EBCB
:105D8C0083029642B2D9009B634023F47F6323F0D5
:105D9C000F03002BAAD16388013B9BB247F6FE612F
:105DAC008B42A3D801922388002BD6D178461E4B68
:105DBC001B68002BD0D09847CFE724F47F6424F0E5
:105DCC000F0404F5805423782344D3E7154A526911
:105DDC0001208DF808000392009A05920493134A4F
:105DEC0002A900F0A1FE90B90E49019B23F0030219
:105DFC004B6913444B6114B10A4B1C617AE778462A
:105E0C00094B1B680BB19847F6E700DEF4E700205E
:105E1C0006E00122034B5A7675E7012000E00120D1
:105E2C0007B0F0BD50360020044900206C3600202D
:105E3C0008B54FF010235B69B3F1FF3F03D04FF06F
:105E4C0010235B6963B94FF080525169136903FBEE
:105E5C0001F3A3F58053044A1360FFF7D5FC08BD8A
:105E6C004FF010235B69F4E770360020024B187872
:105E7C00003018BF012070475036002010B584B098
:105E8C000446244B1B782BB17846234B1B68002B04
:105E9C003BD098472378032B05D078461E4B1B68C4
:105EAC00002B34D098471B4B9C60E268DA600024CE
:105EBC005C601C76012018705C76184900F01EFEA0
:105ECC00FFF748FC0A238DF808308DF809408DF84F
:105EDC000A40039402A8FDF721FCA0B1104B1B68EB
:105EEC0013F0200F0FD00F4B1B68012B0BD90E4B4F
:105EFC00D3F8043501900D4A009240F27B220C49F4
:105F0C00022003F0C9F904B010BD00DEC2E700DEC8
:105F1C00C9E700BF50360020044900206958020030
:105F2C00E4310020E031002000B00040D4670300D1
:105F3C000A690300014B1868704700BF70360020D7
:105F4C0010B50446B8B163681BB123680BB1A368E4
:105F5C0023B978460E4B1B68ABB19847A3685A1E01
:105F6C00134204D078460A4B1B6873B19847002340
:105F7C00E360236110BD7846054B1B680BB1984755
:105F8C00E1E700DEDFE700DEE8E700DEEFE700BF79
:105F9C0004490020F8B510B3044611B3826812B955
:105FAC0009252846F8BDEFF3108572B602698068A2
:105FBC000244E668B2420ED027686368013830406C
:105FCC001A4600FB037010F0B3FAE3680133E36088
:105FDC005DB962B6E5E735B962B60425E1E70E2591
:105FEC00DFE70E25DDE70425DBE70025D9E770B5F3
:105FFC0008B30446826812B90925284670BDEFF330
:10600C00108572B60669C268964210D0084621689F
:10601C006268A368013B1E4006FB021108B110F038
:10602C0087FA2369013323614DB962B6E5E725B9D7
:10603C0062B60525E1E70E25DFE70525DDE700253E
:10604C00DBE70000C0F30B030BB11020704709B95C
:10605C000920704701F6FF71090B0222104BC3F89F
:10606C0004250F4BD3F80034002BFAD000220AE0A1
:10607C000B4BC3F808050A4BD3F80034002BFAD0AD
:10608C0000F5805001328A42F2D30022044BC3F84F
:10609C000425034BD3F80034002BFAD000207047B2
:1060AC0000E0014010F0030F02D010231846704797
:1060BC0011F0030F01D01023F8E70AB90923F5E713
:1060CC0012F0030F01D00923F0E710B49308012458
:1060DC00124AC2F80445114AD2F80024002AFAD018
:1060EC0002E00430043113465A1E53B10B68B3F16D
:1060FC00FF3FF6D00360094BD3F80034002BFAD0E5
:10610C00EFE70021054AC2F80415044AD2F800242E
:10611C00002AFAD018465DF8044B704700E00140A5
:10612C0001800023438042607047000038B5134C57
:10613C004FF480552A460021204610F023FA104BCC
:10614C001C600AE0002228212046FFF7E9FF238883
:10615C00083323446360303D1C46502DF2D8083D73
:10616C0004D17846074B1B6833B198470022A9B27B
:10617C002046FFF7D5FF38BD00DEF7E77836002064
:10618C00784600200449002010B5044608B1A04709
:10619C0010BD7846034B1B680BB19847F7E700DE40
:1061AC00F5E700BF0449002008B508220221084881
:1061BC0003F058FF38B1074A91684160127B0272B4
:1061CC0003F094FF08BD044804F0DCF808BD00BFE0
:1061DC0080460020BC460020C03100200E4B1B78AE
:1061EC00CBB910B50D4B5C6804F50054B4F1807F4D
:1061FC0000D910BD04220121094803F033FF30B14E
:10620C00446003F073FF0122034B1A70F1E7054859
:10621C0004F0B8F810BD7047D0460020BC460020F2
:10622C0080460020B031002000B58DB003908DF871
:10623C0008100CA8022300F82C3DFEF7B5FE0DB09B
:10624C005DF804FB10B58CB00C469AB94B88012B49
:10625C0028D1164B1B7823B97846154B1B683BB1DC
:10626C0098476268134B5A600022104B1A7019E061
:10627C0000DEF6E7032A04D078460D4B1B689BB171
:10628C0098472C22002101A810F07CF919238DF8D5
:10629C0004300394084BDA6805921B69069301A835
:1062AC00FEF782FE0CB010BD00DEEAE7D0460020FF
:1062BC0004490020BC4600208046002038B500E090
:1062CC0020BF04F081F80028FAD001F097FF0022DB
:1062DC0011461B4803F010FE00252C4605E0051D59
:1062EC0002460021164803F007FE30B14388012B0B
:1062FC00F5D0022BF4D1041DF2E7A4B19DB12268B4
:10630C00104B9A6022791A73AC4201D9237993B15C
:10631C002A680C4B1A600B4B1A685A60FFF75EFF29
:10632C0001F08CFF38BD074B00221A609A601A737B
:10633C00FFF73AFFEFE70022024B1A60EBE700BFD2
:10634C0080460020BC46002008B504F085F8A0F576
:10635C00805008BD00B587B00023009301930293D1
:10636C00039304930593FFF7EFFF00900123019330
:10637C00064B03936946064803F0B6FF10B907B005
:10638C005DF804FB034803F0FDFFF8E751620200DF
:10639C0080460020D031002010B50C4B00241C602E
:1063AC005C609C60DC601C6101F01AFA084B586060
:1063BC00084A9A60084ADA601C615C61074A1470EA
:1063CC00184601F0EDF8FFF7C5FF10BDBC460020E4
:1063DC00A4460020FD64020000879303D1460020F0
:1063EC0038B501F00BFF174B1B7B23B1082401F0D0
:1063FC0025FF204638BD134B9B7B0BB10824F6E7D9
:10640C00104B1A8A41F282639A4204D80E4B1B78C5
:10641C002BB1012300E001231BB90824E7E700237B
:10642C00FAE7084D01232B7300242C82AB6801334F
:10643C00AB60FFF7B9FEA868297B0138FFF7F4FEC3
:10644C00D5E700BFBC460020D146002010B501F0B6
:10645C00D5FE244B5B7B9BB1224B9B7B03BB214B1F
:10646C001A8A41F282639A4204D81F4B1B782BB1D3
:10647C00012300E00123ABB1012302E00023FAE782
:10648C0000231C4643B3174B00225A731B7B5BB192
:10649C00012B14D07846154B1B680BB398471BE0A7
:1064AC000023EEE70023ECE7FFF79AFFA0B1784654
:1064BC000E4B1B680BB198470EE000DE0CE0094B4D
:1064CC00002119605960197319829868FFF7ACFEA6
:1064DC00FFF76AFEFFF782FE01F0B0FE204610BD0A
:1064EC0000DEF9E7BC460020D1460020044900201C
:1064FC0010B5264B1B7B4BB1012B27D07846244B78
:10650C001B68002B3DD0984701240DE01F4B1A8AC5
:10651C0041F282639A4204D81E4B1B7883B101234B
:10652C0000E0012373B901241CB1184A138A01330A
:10653C001382164B5B8A13B1013B144A538210BD74
:10654C000023EFE7FFF782FF0024EDE70F4B1A8AD9
:10655C0041F282639A4204D80E4B1B787BB1012323
:10656C0000E001231C467BB142F2B0139A4203D9DE
:10657C000122064B5A730024FFF768FFD4E700236F
:10658C00F0E700DE0124CFE70124CDE7BC46002074
:10659C0004490020D146002010B5184B1A685B68DE
:1065AC009A4225D20446154B1B7B012B15D0144B5C
:1065BC00934214D9002028B9104B1A685B68403BF1
:1065CC009A4212D2EFF3108072B60C4A1368591C1F
:1065DC001160236080B962B610BD0A4BE8E7012256
:1065EC00064B5A73FFF732FFE5E7FFF7F7FDE9E7D4
:1065FC00FFF7F4FD0F2010BD002010BDBC4600209D
:10660C00FFFF7F0000E0FF0008B568B90E4B1B6868
:10661C0023B978460D4B1B6873B198470A4A136827
:10662C00013B136053B108BD0122094B9A73064A12
:10663C0013680133136008BD00DEEFE70022044B42
:10664C009A73FFF703FFEEE77C4600200449002015
:10665C00BC46002038B505460C4601F0CFFD254B55
:10666C001B7B002B34D1234B5B8A2BBB1CB9214BDE
:10667C009B68AB4205D3FCB11E4B9B6801339D421A
:10668C001AD91C4B9B682A339D4223D8194B9B7BF0
:10669C0003BB184CA56023606360238242F606524C
:1066AC00628263732373FFF77FFDFFF797FD217BF6
:1066BC00A068FFF7B9FD0DE064B10E4B9B68013388
:1066CC009D4207D101220B4B5A73FFF7BFFE01E02D
:1066DC00012B02D001F0B2FD38BD002CFAD1054BD4
:1066EC009B689D42F6D10122024B5A73FFF7AEFE16
:1066FC00F0E700BFBC460020014B9868704700BF14
:10670C00BC460020054B1B7B012B02D0034B986829
:10671C007047024B98680138704700BFBC46002098
:10672C00044B9B68584010F0010F00D0013B1846F9
:10673C00704700BFBC460020014B187B704700BF60
:10674C00BC46002008B50278012A09D0022A15D0CF
:10675C007846114B1B68D3B198474FF4FA7308E095
:10676C0083685B1A98084FF4A97303FB00F303F5D5
:10677C00FA730A48984228BF184608BD83685B1A0A
:10678C00180B074B03FB00F303F5FA73F1E700DE7C
:10679C004FF4FA73EDE700BF04490020A086010016
:1067AC00645E010008B50378012B08D0022B0CD0D5
:1067BC007846074B1B682BB19847002008BD4FF457
:1067CC00A97008BD00DE002008BD024808BD00BF4E
:1067DC0004490020645E01002DE9F041002722E00D
:1067EC002349B82303FB04F3CA5A0132CA520221CB
:1067FC00404602F0F3FB01360221404602F0B4FBA6
:10680C0070B1B8231A4A03FB04239D68002DE7D00E
:10681C00B82303FB04F3D25A01463846A847DFE7F6
:10682C0096B90137FFB2022F20D83C46B82303FBA0
:10683C0007F308330E4D1D4405F1040802214046B0
:10684C0002F092FB0026DBE70021404602F052FCEE
:10685C000828E6D1B822064B02FB0434A368002BAF
:10686C00DFD00022034938469847DAE7BDE8F081CB
:10687C00DC4600204C69030008B508238373102301
:10688C00437300F11C0343610323037300F11803EA
:10689C0003610C3002F0ECFB08BD000010B504469F
:1068AC0001210C3002F060FBD8B10E4AC4F89C20D8
:1068BC000022C4F8A0206168FFF744FFC4F8A400CC
:1068CC00C4F8A840012384F8B43004F19C000AF009
:1068DC00BBFB30B17846044B1B680BB1984710BD1D
:1068EC0000DE10BD296A020004490020F8B50646F6
:1068FC000C46174615680378012B04D07846164BC6
:10690C001B681BB398471549A1FB0431C9098900C1
:10691C00B468641BA14200D80C4624B978460E4BCF
:10692C001B68ABB19847706825F00305F1682246E7
:10693C0029442844FFF7B6FB20B17846064B1B6868
:10694C0043B198473B681C443C60F8BD00DEDAE775
:10695C0000DEE8E700DEF5E704490020EB5DF260BD
:10696C00F8B507460C46164615680378022B04D07A
:10697C007846154B1B680BB39847144BA3FB0423A9
:10698C001B0C1B03BC68641BA34200D81C4624B917
:10699C0078460D4B1B689BB19847786825F003052A
:1069AC0021462844FFF74EFB20B17846064B1B6866
:1069BC0043B1984733681C443460F8BD00DEDCE713
:1069CC0000DEEAE700DEF5E704490020B77609BBF4
:1069DC0038B505460C4611462378012B08D0022BFE
:1069EC0011D078460C4B1B689BB19847002004E0F3
:1069FC00021D2046FFF77AFFA0686B68984214BF0F
:106A0C000020012038BD021D2046FFF7A9FFA06819
:106A1C00F3E700DE0020F0E7044900202DE9F843FD
:106A2C008846D1F8A450264B1B7863B90646A5F5C9
:106A3C00FA7501F10C090121484602F095FA074656
:106A4C0040B1002428E00AF04FFB002388F8B43052
:106A5C00BDE8F88378461B4B1B680BB19847F0E7F1
:106A6C0000DEEEE70AF040FB0121484602F0B6FAE0
:106A7C000023C8F8043088F8B430134B186801F0C0
:106A8C0027FC4046FFF70AFFBDE8F8833846FFF7BE
:106A9C0089FE204485420CD32A1B39464046FFF719
:106AAC0097FF0028DED100F09BFE841BEED5341A34
:106ABC00ECE70AF019FB4046FFF7F0FEBDE8F8835F
:106ACC00D846002004490020D446002010B50848C0
:106ADC0001F0D4FB074B1860002406E0B820064BED
:106AEC0000FB0430FFF7C8FE0134022CF6D910BDB0
:106AFC00E5670200D4460020DC46002038B5044689
:106B0C000D46022804D97846054B1B6833B19847CB
:106B1C00B822044B02FB0434A56038BD00DEF7E755
:106B2C0004490020DC4600202DE9F84306460C46BB
:106B3C009046022805D978465C4B1B68002B4CD03C
:106B4C009847002C4BD02378012B50D0022B7AD0B5
:106B5C007846564B1B68002B00F097809847EFF354
:106B6C00108772B6B82505FB06F505F10803504DE4
:106B7C001D4404350021284602F0F6F98146002810
:106B8C0000F08D800021284602F028FA2068616808
:106B9C00A268E368C9F80000C9F80410C9F8082015
:106BAC00C9F80C30B8F1000F06D0B823404A03FBEB
:106BBC0006235B88A8F80030B8233D4A03FB062364
:106BCC005A8801325A8093F8B430002B6CD1394B6F
:106BDC001B78002B5BD0002062E000DEB1E778462A
:106BEC00324B1B680BB19847ADE700DEABE763682F
:106BFC0013F0030F04D078462C4B1B68DBB198477D
:106C0C00E36813F0030F04D07846284B1B68A3B13C
:106C1C009847A36813F0030F04D07846234B1B68E6
:106C2C006BB19847A368002B99D178461F4B1B6812
:106C3C003BB1984793E700DEE2E700DEE9E700DED0
:106C4C00F0E700DE8BE76368C3F30B0323B17846F0
:106C5C00164B1B689BB19847A368C3F30B0323B176
:106C6C007846124B1B6863B19847A368002B7FF4DE
:106C7C0076AF78460D4B1B682BB198476FE700DE5B
:106C8C00EAE700DEF1E700DE69E700DE67E7B8203F
:106C9C00074B00FB0630FFF701FE002000E004204C
:106CAC0007B962B6BDE8F8830020F9E70449002073
:106CBC00DC460020D846002018B1830B024AD05C79
:106CCC0070470020704700BF5C69030012DF7047FB
:106CDC0030B583B0284B1B781BB10824204603B079
:106CEC0030BD002846D005464268244B1A60FCF79C
:106CFC002BFD0DF10700FFF7E9FF04460028EDD14D
:106D0C009DF80730012B01D00224E7E7FCF750FD7A
:106D1C0000F032FC01F03CFAE87800F0B5F901F033
:106D2C00F9F80AF06BF90AF09BFF09F02BFFFFF75B
:106D3C00CDFE03F04DF803F0DDFF2846FDF732FFE2
:106D4C00284601F063FF42F2107003F017FE28464C
:106D5C00FFF7ECF9FCF7E0FC18B1062801D004466B
:106D6C00BCE700F061FE0022054B1A600122024BC9
:106D7C001A70B3E70E24B1E709490020044900203A
:106D8C000C49002010B5104B1B7813B90824204671
:106D9C0010BD0E4B1B780BB10824F8E701F0E0F89E
:106DAC0020B178460A4B1B685BB198470AF03CF956
:106DBC0004460028EBD10AF04DFE0122034B1A7059
:106DCC00E5E700DEF2E700BF094900200849002092
:106DDC000449002008B5FDF7EBFF08BDF0B58DB0F8
:106DEC000AF078FE05460027BBE02B7D03F00F036D
:106DFC00022B41D0237801331C446A7D052A40F2D2
:106E0C009A8002F112032B4405339C4280F093804C
:106E1C006378163B152BEDD801A252F823F000BF76
:106E2C00296F0200016E0200016E0200016E020069
:106E3C00016E0200016E0200016E0200016E020082
:106E4C00016E0200016E0200016E0200016E020072
:106E5C00016E0200016E0200016E0200016E020062
:106E6C00016E0200016E0200016E0200C16E020092
:106E7C00F76D0200DB6E0200217806AA0139A01C16
:106E8C0002F028F807460028B4D03E4B1B6813F0DC
:106E9C00400FAFD03C4B1B68012BABD93B4BD3F80D
:106EAC00043501903A4A0092F8223A49022002F045
:106EBC00F3F99FE72B7D03F00F03022B9AD1217876
:106ECC00013906AAC9B2A01C09F0C4FC92E72B7DBB
:106EDC0003F00F03022B8DD12178013906AAC9B218
:106EEC00A01C03F0BFFD0746002883D0254B1B6870
:106EFC0013F0400F3FF47EAF234B1B68012B7FF642
:106F0C0079AF224BD3F804350190234A009240F21A
:106F1C000B122049022002F0BFF96BE762884FF692
:106F2C00E4639A427FF466AF217806AA0339201DE8
:106F3C00FCF7F2FB5EE7194B196861B106AB0593E0
:106F4C002B7DC3F303038DF80C30063A8DF80D201E
:106F5C00049603A8884728460AF096FD0AF0BAFD65
:106F6C00054665B100238DF8183007AC2E460FCEC0
:106F7C000FC43368236005F11D0634463DE73846DF
:106F8C000DB0F0BDE4310020E031002000B0004035
:106F9C009069030082690300BC6903000C4900205E
:106FAC000020704708B500F079FF002008BD08B537
:106FBC00FEF716F808BD08B5FEF754F808BD00003A
:106FCC0010B5044618B100232360636010BD7846E9
:106FDC00034B1B680BB19847F5E700DEF3E700BFE6
:106FEC000449002038B50C46054668B1A4B100230D
:106FFC006360EFF3108372B62A68AAB16A685460B2
:10700C006C6003B962B638BD7846084B1B680BB18F
:10701C009847EBE700DEE9E77846044B1B680BB1B9
:10702C009847E4E700DEE2E72C60E9E7044900203A
:10703C0010B5044658B1EFF3108372B6206808B14E
:10704C0042682260226852B103B962B610BD78461C
:10705C00044B1B680BB19847EDE700DEEBE7626071
:10706C00F2E700BF0449002010B5044608B12068BF
:10707C0010BD7846034B1B680BB19847F7E700DE51
:10708C00F5E700BF04490020072814D8DFE800F01A
:10709C00080C1504110F0A06642070471420704761
:1070AC00FA2070471E2070474FF4FA707047322058
:1070BC0070474B207047FA2070479620704753B1A9
:1070CC0030B4013B9BB2CC5CD55C6C40C454002BFF
:1070DC00F7D130BC7047704770B50C461546324E30
:1070EC00002333607360B360F36032463146FCF7C3
:1070FC0043FB96F90030002B02DB002110230CE03F
:10710C00002110231CE0013B9BB22748C25C5200BB
:10711C00D2B20A43E254C25CD109002BF3D194F9E8
:10712C000030002B1ADB0021102323E0013B9BB223
:10713C001D48C25C5200D2B20A43E254C25CD1096F
:10714C00002BF3D1102306E0013B9BB2E25C174904
:10715C00C95C4A40E254002BF6D1E0E70021102331
:10716C0014E0013B9BB2E25C5200D2B20A43EA54F7
:10717C00E25CD109002BF4D170BD013B9BB2E25C07
:10718C005200D2B20A43EA54E25CD109002BF4D18A
:10719C00102306E0013B9BB2EA5C0449C95C4A40FF
:1071AC00EA54002BF6D170BD10490020E8690300A9
:1071BC002DE9F04385B007460C461546984602F17A
:1071CC000F0636111FFA86F9354A3649FFF784FF48
:1071DC00354B00221A605A609A60DA6005F00F0590
:1071EC00B9F1000F11D085B909F1FF30000110235E
:1071FC0008E0013B9BB22218D25C2A49C95C4A4088
:10720C000DF80320002BF4D120E0B1B20139ADB25E
:10721C002A4604EB011168460FF08AF980230DF819
:10722C0005306B1C03E000220DF8032001330F2BFB
:10723C00F9DD102308E0013B9BB21DF8032018492F
:10724C00C95C4A400DF80320002BF4D1002510E056
:10725C00013B9BB21449CA5C04EB0E00C05C42407B
:10726C00CA54002BF4D110490A463846FCF784FA6C
:10727C000135B3B2013B9D4203DA4FEA051E1023E0
:10728C00EFE7094C1023224669462046FFF717FF0B
:10729C00424621463846FCF76FFA05B0BDE8F0834C
:1072AC0030490020204900201049002010B5044628
:1072BC00436923B178461C4B1B686BB198471B4B39
:1072CC001B685BB16068194B1B685B68C31A002BA9
:1072DC0004DB164B196812E000DEF0E7134A136862
:1072EC0063611460D3680133D360E3B978460E4B05
:1072FC001B680BB1984710BD00DE10BD19464B69D9
:10730C001BB15A68121A002AF8DB63614C61074AF8
:10731C00D3680133D36033B97846034B1B680BB188
:10732C00984710BD00DE10BD0449002044490020E0
:10733C00134B5B681BB310B50BE00023237005E007
:10734C0000DE022323702046FFF7B0FF0C4B5B6876
:10735C00A3B10B4B5C6862695A60002363612378AC
:10736C00DBB2052BE9D02378DBB2012BE9D07846D0
:10737C00044B1B68002BE3D09847E2E710BD704725
:10738C00444900200449002070B5244E15E063697F
:10739C00336000236361214AD368591ED16023B93D
:1073AC0078461F4B1B68C3B198471C4A9368013B36
:1073BC00936000232370032D11D03468002C2BD044
:1073CC00164B9B68002B27D02578EDB2EB1EDBB259
:1073DC00012BDCD904F11406EFE700DEE5E7237896
:1073EC0043B12378DBB2062B04D078460C4B1B68D8
:1073FC0073B19847636923B17846094B1B684BB14D
:10740C00984701232370054B5A6862615C60D4E78E
:10741C0000DEEFE700DEF4E770BD00BF444900205A
:10742C000449002038B5054616E000DE2AE09847EE
:10743C00A368002B37D006232370A3682169284644
:10744C00984700F0CDF90546FFF79EFFFFF770FF58
:10745C002378DBB2062B2ED0204B1B68002B3BD0A5
:10746C001E4B1B685B685B1B642B35D51B4B1C6868
:10747C002378DBB2022B05D07846194B1B68002B06
:10748C00D3D098476269154B1A6000226261DA68A2
:10749C00511ED960002ACBD17846114B1B68002BAA
:1074AC00C5D100DEC4E778460D4B1B680BB198477D
:1074BC00C1E700DEBFE7E26812B900232370CBE717
:1074CC006368134463605B1B642BF9D40223237041
:1074DC002046FFF7EBFEBFE738BD00BF4449002054
:1074EC000449002008B5164B1B68002B26D0144B02
:1074FC001B685B68C31A13F1640F0DD40223114A85
:10750C0000F16401012000F02FF9B8B178460E4B60
:10751C001B6893B1984708BD094B19680223094AA7
:10752C004968012000F020F940B17846064B1B68F1
:10753C000BB1984708BD00DE08BD00DE08BD00BFDA
:10754C0044490020757502000449002008B5FFF776
:10755C001BFFFFF7EDFE00F043F9FFF763FF00F0B0
:10756C003FF9FFF7BFFF08BD08B5024B186800F0E4
:10757C00AFFE08BD4049002008B5064B00221A603A
:10758C005A609A60DA60044800F078FE034B186089
:10759C0008BD00BF44490020597502004049002035
:1075AC0038B50446002827D0A368002B2CD0EFF365
:1075BC00108572B60023636123784BB12378DBB25C
:1075CC00062B05D07846164B1B68002B24D0984709
:1075DC00636923B17846124B1B68FBB198470123B2
:1075EC002370104B5A6862615C6005B962B60E4B31
:1075FC00186800F06DFE38BD7846094B1B680BB15E
:10760C009847D1E700DECFE77846054B1B680BB1F6
:10761C009847CCE700DECAE700DED9E700DEDEE7FC
:10762C0004490020444900204049002038B5044654
:10763C00E0B1EFF3108572B62378DBB2062B1DD0C8
:10764C002378DBB2012B1ED02378CBB12378033BFC
:10765C00DBB2012B03D90D4A9368013393600423E9
:10766C0023700B4B186800F033FE09E07846094B89
:10767C001B680BB19847DCE700DEDAE700232370C8
:10768C0005B962B638BD05232370F9E744490020DB
:10769C00404900200449002070B50E460446E0B174
:1076AC00EFF3108572B62378FBB12378DBB2062B8F
:1076BC001BD02378DBB2012B3BD02378DBB2052B1C
:1076CC0037D02378033BDBB2012B03D91A4A9368DA
:1076DC0001339360032323701FE07846174B1B681C
:1076EC000BB19847DCE700DEDAE7237843B1237867
:1076FC00DBB2062B04D07846104B1B68ABB1984715
:10770C00636923B178460D4B1B6883B198470123FD
:10771C002370094B5A6862615C606660084B18689C
:10772C0000F0D6FD05B962B670BD00DEE8E700DEFC
:10773C00EDE701232370F0E74449002004490020C1
:10774C004049002000F1100301229A40054BC3F878
:10775C00042300F5A87243F822105030002243F89D
:10776C002020704700800040022801D90720704774
:10777C0038B533F0030401D00A2038BDEFF3108480
:10778C00104D2C6072B6104C44F820200F4A42F871
:10779C0020100F4A135400220E4B43F820200E4B9E
:1077AC001B7833B10D4B1B68CA1A07D41146FFF76F
:1077BC00C9FF044B186818B962B638BD5A1AF5E7F8
:1077CC00002038BD78490020584900206C49002021
:1077DC005449002080490020644900206849002059
:1077EC00EFF310830C4A136072B60C4B1B787BB111
:1077FC000B4B0022C3F84C210122DA64D3F84C0560
:10780C00084B1B681844044B1B6803B962B67047DD
:10781C00054B1868F7E700BF784900206449002041
:10782C0000800040684900207C49002038B50024C5
:10783C0018E078461E4B1B680BB1984720E000DE21
:10784C001EE00146284600F0BFFC20B17846184BDC
:10785C001B684BB3984704F150030021154A42F8BA
:10786C0023100134022C21D804F15003114A52F890
:10787C002330002BF5D0104B53F82450002DD8D0CA
:10788C0000220D4B43F8242004F1100201239340F5
:10789C00084AC2F80833FFF7A3FF084B1B5D13F02F
:1078AC00020FCED0A847D6E700DED4E738BD00BF24
:1078BC000449002000800040584900205449002011
:1078CC0070B50546002419E0981A2CE05E1A2EE0DB
:1078DC002946184600F078FC28B178462B4B1B68DB
:1078EC00002B37D098472A4B53F824302BB1012268
:1078FC001A600022264B43F824200134022C38D87D
:10790C00244B04F5A872002143F8221004F1500214
:10791C0043F8221053F822301F4B53F824201F4BEE
:10792C001B68D01AD0D405F17801CE1ACED4864279
:10793C0012D91B4B53F82430002BD4D00021184AF9
:10794C0042F82410174A125D12F0020FC0D02846DC
:10795C009847C8E700DEC6E7114B53F82430002BDC
:10796C00CBD0E0B2511B02D4FFF7ECFEC5E7A91A4D
:10797C00FAE70D4B1B681BB94FF480720B4B1A6066
:10798C00064B1D6001220A4B1A7070BD0449002081
:10799C0080490020008000406C490020684900208C
:1079AC0058490020544900207849002000E100E0AB
:1079BC0064490020002300E00133022B0ED80F4A4B
:1079CC00D25C12F0010FF7D000220C49CA540C49BA
:1079DC0041F823200B4941F82320EDE70A4B1860AE
:1079EC0000220A4B1A704FF0FF32094BC3F80823E0
:1079FC004FF48072074BC3F8802170475449002024
:107A0C0058490020804900207C490020644900200E
:107A1C000080004000E100E0024A1368013313606B
:107A2C00704700BF8C49002010B50023084A136032
:107A3C00084C094AA260094AE2602361FFF7D0FEB4
:107A4C0000F5C330A03060602046FFF7A9FD10BDE3
:107A5C008C49002090490020257A0200A086010064
:107A6C002FDF704730DF704710B4034600685A6848
:107A7C00A0EB72109C6882EAF4321A60D9680C444C
:107A8C005C60014499601044D8605DF8044B704709
:107A9C0070B582B00D46064608B100240FE078465A
:107AAC00104B1B680BB19847F7E700DEF5E79DF824
:107ABC0007103019FFF7D6FF9DF807301C44AC4275
:107ACC000DD20DF10700FFF7CBFF9DF80730002B0F
:107ADC00F7D02A1B9342EAD98DF80720E7E702B0CA
:107AEC0070BD00BF0449002030B583B005460024AA
:107AFC0002A840F8044D0421FFF7CAFF074B2B6086
:107B0C00019B6B60AB60EB6003E02846FFF7ACFFBA
:107B1C000134132CF9D903B030BD00BFED5EEAF18E
:107B2C0008B5A0F1C8039BB2632B09D9A0F59673D5
:107B3C009BB2632B07D9B0F5C87F07D2062008BDCE
:107B4C000CF048F908BDFDF775F908BD01F076F8A1
:107B5C0008BD08B5A0F1C8039BB2632B09D9A0F5E9
:107B6C0096739BB2632B07D9B0F5C87F07D206205A
:107B7C0008BD0CF041F908BDFDF7D8F908BD01F0BE
:107B8C0089F808BD45DF704746DF704747DF70470F
:107B9C002DE9F0431A4BD3F804650027837A5BBBBD
:107BAC00184BD3E90045341B24F07F4400256201B7
:107BBC006B01121B63EB0503590241EAD2514FEAE8
:107BCC00422E1EEB040241EB05034FEA831949EAEE
:107BDC0092694FEA8218B8EB020269EB0303A4180E
:107BEC005D41E30B43EA4543426813444360054B54
:107BFC00C3E90067BDE8F083002383720368F3E7F1
:107C0C0000B00040E049002008B50D4B1B78012B5B
:107C1C0007D0022B0DD078460A4B1B6873B19847DE
:107C2C0003E002230375012383720022044B1A70B4
:107C3C0008BD03230375044B8361F6E700DEF4E70C
:107C4C00D949002004490020C849002010B5044639
:107C5C000023C3600361FFF79BFF2368084A926807
:107C6C0022600121217503B9064B991AA161B1F566
:107C7C007A7F01D3934202D24FF47A73A36110BD81
:107C8C00C849002080969800094B03221A75094AAE
:107C9C009A611A6840F6D8639A4204D840F6D862C2
:107CAC00044B9A60704743F2B062024B9A60704783
:107CBC00A8490020C849002038B5054600240475A1
:107CCC00012343724068FFF7FBFD09F091FA6B68E2
:107CDC002A6813440C490968283101FB02F10B4A4C
:107CEC00A2FB0121A3EB91410323094A78392046D9
:107CFC00FFF73AFD30B17846064B1B680BB198473D
:107D0C0038BD00DE38BD00BFC449002083DE1B43F4
:107D1C00957C02000449002010B50C4631B1036972
:107D2C00013303618269036813440360C368013340
:107D3C00C36001220275826952088261012B0DD049
:107D4C00022B19D082690368134417498B4222D83D
:107D5C0040F6D7639A4221D800231DE0B2F5FA7F92
:107D6C0005D040F6D8639A42ECD88361EAE7002C40
:107D7C00F7D100238361E5E70369022B06D0012BC1
:107D8C00E0D1002CDED100238361DBE70268064BD7
:107D9C009B1A8361D6E7002313B110BD0123FBE7C7
:107DAC00FFF78AFFF9E700BF80969800437A1BB96A
:107DBC0000220E4B1A70704710B5044609F03AFABF
:107DCC006068226810440A4B1B68283303FB02F3DB
:107DDC00084AA2FB0323A0EB93407838FFF7EAFD97
:107DEC00002363720022014B1A7010BDD849002089
:107DFC00C449002083DE1B4308B50122234B1A72B1
:107E0C00234B1B7813B1234B1B783BB300221F4B26
:107E1C001A7504281AD8DFE800F00314110C0700B7
:107E2C001A48FFF713FF22E001211848FFF774FFEF
:107E3C001DE000211548FFF76FFF18E009F090F9DD
:107E4C0015E0FFF7F3FC09F0BDF910E07846124B92
:107E5C001B680BB198470AE000DE08E0FFF7C0FC96
:107E6C000A4B5A68801A18601846FFF7CDFE074B6C
:107E7C001B7D023BDBB2012B04D9044800230372A7
:107E8C00143008BD0148FFF791FFF6E7A849002020
:107E9C00D9490020D84900200449002008B50438ED
:107EAC00032831D8DFE800F016250E02FFF76CFE30
:107EBC00002829D07846154B1B680BB1984708BD94
:107ECC0000DE08BD7846114B1B680BB1984708BD06
:107EDC0000DE08BD0E4840F6D8638360FFF756FEFF
:107EEC0090B17846094B1B680BB1984708BD00DE72
:107EFC0008BD0748FFF74AFE30B17846034B1B68B4
:107F0C000BB1984708BD00DE08BD00BF0449002036
:107F1C00C849002010B40D4A0023137013710121BD
:107F2C00517143F2B064946043F69824D460084ACB
:107F3C001060084A1370084A1370084A137253727F
:107F4C001360917253605DF8044B7047C849002070
:107F5C00C4490020D8490020D9490020A849002054
:107F6C0008B50648FFF70EFE034608B1184608BDD3
:107F7C000348FFF70BFE0346F8E700BF057E02003F
:107F8C00C8490020084B1B7D032B09D0074B1B78DD
:107F9C00012B07D0022B01D0002070470120704725
:107FAC000120704701207047A8490020D9490020C2
:107FBC00014B5868704700BFA84900200E4B5B7AF4
:107FCC000BB90020704710B50B4B5C681A68144451
:107FDC000A4B1B68283303FB02F3094AA2FB032359
:107FEC00A4EB9344783CFFF7FBFB0346201A00D428
:107FFC0010BD181B10BD00BFA8490020C4490020AB
:10800C0083DE1B43014B187A704700BFA849002040
:10801C00EFF3108372B6054A527A22B14FF4807195
:10802C00034AC2F8001103B962B67047A849002090
:10803C0000E100E008B50122024B1A70FFF7E8FFDF
:10804C0008BD00BFD949002008B5094B1B782BB1DE
:10805C0048B9084B1B7813B1012300E00023044AF4
:10806C00107013B908BD0023F9E7FFF7D1FFF9E74A
:10807C00D8490020D949002008B50378012B0ED02F
:10808C0013B1022B05D008BD436863B180689847D3
:10809C0008BD43683BB1C1688068984708BD436818
:1080AC000BB18068984708BD4FF48022014BC3F890
:1080BC000021704700E100E030B585B0002404E0F9
:1080CC00234B53F8243098470134224B1B689C42B5
:1080DC0019D26109204A52F8213004F01F00C34024
:1080EC0013F0010FF0D0EFF3108372B6012505FAEF
:1080FC0000F052F8215025EA000542F82150002BDF
:10810C00DED162B6DCE71548FEF792FF08E000DE30
:10811C00A368E0689847002323741048FEF788FF93
:10812C0068B10468237C002BF2D178460C4B1B6899
:10813C00002BECD09847EBE76846FFF79DFF6946AC
:10814C000848FDF754FF0028F6D005B030BD00BF3D
:10815C00044B0020004B00201C4B0020204B002027
:10816C0004490020E849002010B501460548FDF7F8
:10817C0011FF10B10424204610BD0446FFF794FFF4
:10818C00F9E700BFE849002008B5FFF795FF08BDE7
:10819C0008B50948094B0360102343608360FDF761
:1081AC00CFFE0748FEF70CFF064BC02283F81223C4
:1081BC004FF480221A6008BDE8490020FC490020D9
:1081CC00204B002000E100E030B585B00C460546A0
:1081DC0048B100238DF80030019502946846FFF7F2
:1081EC00C3FF05B030BD7846034B1B680BB19847F5
:1081FC00EFE700DEEDE700BF0449002010B5EFF318
:10820C00108472B60A490A68531C0B6022B94FF4E9
:10821C008021084AC2F8801023B97846064B1B68A7
:10822C001BB1984704B962B610BD00DEFAE700BF77
:10823C00FC4A002000E100E00449002010B5EFF3F7
:10824C00108472B60A4B1B6823B97846094B1B681D
:10825C0063B19847064A1368013B13601BB94FF48E
:10826C008022054B1A6004B962B610BD00DEF1E73E
:10827C00FC4A00200449002000E100E010B504464F
:10828C00A8B1104B1B68052B04D978460E4B1B6804
:10829C00ABB19847EFF3108372B60A4A1068411CD1
:1082AC0011600A4A42F8204003B962B610BD784604
:1082BC00054B1B680BB19847E3E700DEE1E700DEF6
:1082CC00E8E700BF004B002004490020044B0020CD
:1082DC0038B504460F4B1B68834204D878460E4BC6
:1082EC001B68A3B19847EFF3108572B661090B4A6E
:1082FC0004F01F04012303FA04F452F82130234341
:10830C0042F82130FFF7D0FE05B962B638BD00DE69
:10831C00E9E700BF004B0020044900201C4B002063
:10832C0070B50D461646044658B195B1EFF310835F
:10833C0072B6A560E66000222274246003B962B6AE
:10834C0070BD7846074B1B680BB19847EDE700DE14
:10835C00EBE77846034B1B680BB19847E6E700DE6A
:10836C00E4E700BF0449002038B5044650B1A368C7
:10837C0083B1EFF3108572B6237C9BB1112005B944
:10838C0062B638BD78460C4B1B680BB19847EEE7CC
:10839C0000DEECE77846084B1B680BB19847E8E722
:1083AC0000DEE6E70123237421460448FEF71AFE9B
:1083BC00FFF77AFE0020E2E704490020204B002062
:1083CC0010B5044608B1207C10BD7846034B1B68E1
:1083DC000BB19847F7E700DEF5E700BF0449002032
:1083EC0008B5FBF7C9F908BD08B5FEF7E1FE08BDF5
:1083FC0008B502F02DF908BD08B502F07AF908BDF0
:10840C0038B599B3022964D81970597801F08001F4
:10841C0062F3C7115970C168C1F3074201F47F447C
:10842C002243090401F47F010A439A70C2F3072125
:10843C00D970120C1A7101890A0A42EA0122A3F8B6
:10844C00052041880A0A42EA0122A3F807200169A3
:10845C000A0202F47F0242EA0162080A00F47F4039
:10846C00024342EA1162C3F8092038BD00241C7093
:10847C00817A5A7861F306025A70C17AD2B261F3EA
:10848C00C7125A70C168C1F3074201F47F452A43F1
:10849C00090401F47F010A439A70C2F30721D970D1
:1084AC00120C1A7101890A0A42EA0122A3F805206A
:1084BC00DC711C7201690A0202F47F0242EA016259
:1084CC00080A00F47F40024342EA1162C3F8092013
:1084DC0038BD7846034B1B680BB1984738BD00DE9E
:1084EC0038BD00BF0449002070B584B00E46144658
:1084FC00054668B162B10023009301930293039384
:10850C002346324629466846FFF76EFF04B070BD1D
:10851C007846034B1B680BB19847ECE700DEEAE7A3
:10852C0004490020F0B585B00F4614461D4606469A
:10853C0090B18AB183B10B9B73B16B463A4631460D
:10854C002046FFF751FF0B9B9DF8282029466846D3
:10855C00FFF74AFF05B0F0BD7846034B1B680BB123
:10856C009847EAE700DEE8E7044900202DE9F047E8
:10857C0086B000AF8846154699460446002858D068
:10858C00002956D0002B54D005F1110605F1100A24
:10859C0005F1180323F00703ADEB030D294B1B6802
:1085AC0007F1180040F8043D6A460421FFF79CFFD0
:1085BC003B1D102221466846FFF716FF2A4641460E
:1085CC0068460DF0B5FF01230DF80530EA186B462F
:1085DC0092B26946381DFFF707FF9DF80F3003F084
:1085EC007F034C4604F8013B2A46414604A80DF093
:1085FC009FFF02230DF80A30B6B223463246694675
:10860C00381DFFF7F1FE20686168A268E3680090EE
:10861C0001910292039303230DF80A3009F111031F
:10862C0032466946381DFFF7DFFE1837BD46BDE8F8
:10863C00F0877846044B1B680BB19847A4E700DE23
:10864C00A2E700BFF86903000449002070B588B0A8
:10865C000D46064600B3F9B1134C6368039304AAA4
:10866C00042103A8FFF740FF04AB10223146184643
:10867C00FFF7BAFE083494E8030001908DF8081057
:10868C0004AB052201A91846FFF7AEFE06AB03CBDF
:10869C002860696008B070BD7846044B1B680BB14C
:1086AC009847D9E700DED7E7F869030004490020B2
:1086BC0070B586B00D460646F8B1F1B1134C23697E
:1086CC00019302AA04210DEB0100FFF70DFF02AB91
:1086DC00102231461846FFF787FE636906A941F858
:1086EC00183D02AB04221846FFF77EFE9DF81730AA
:1086FC0003F03F032B7006B070BD7846044B1B682B
:10870C000BB19847DAE700DED8E700BFF869030041
:10871C00044900204B78DB09C3724B7803F07F03CC
:10872C0083728A78CB781B0243EA02430A7913439B
:10873C00C3604A798B7943EA0223038170470000B6
:10874C0010B5044658B123789BB1E368B3F1807F30
:10875C0011D294F90A30002B09DB012010BD7846A8
:10876C00064B1B680BB19847EDE700DEEBE70020EA
:10877C0010BD002010BD002010BD00BF044900201A
:10878C0038B504460D460889FEF796FA012805D03F
:10879C007846314B1B68002B48D0984795F90A3026
:1087AC00002B45DBEB68B3F1807F05D378462A4B71
:1087BC001B68002B44D098472B782BB97846264B56
:1087CC001B68002B3ED098476B69002B3CD02B6963
:1087DC0003F00102237803F07F0343EAC2132370F2
:1087EC006A69127803F0800302F07F02134323704E
:1087FC00EA7A637803F07F0343EAC213DBB2637057
:10880C00AA7A03F0800302F07F0213436370EB68D3
:10881C001A0CA2701A0AE27023712B891A0A62715F
:10882C00A3716B881A0AE271237238BD00DEB5E7BA
:10883C007846094B1B680BB19847B3E700DEB1E7EC
:10884C0000DEB9E700DEBFE77846034B1B680BB1CF
:10885C009847BCE700DEBAE70449002070B582B047
:10886C0004460023019303688068DB7A73B1082304
:10887C00184404F10C06636801AA3146093002F071
:10888C0065FA28B90425284602B070BD0423EFE729
:10889C00637B012B0FD00120FDF7B6FE2568FDF799
:1088AC0031FF286120680C30FDF776FE054600206C
:1088BC00FDF7AAFE45B921680198FFF761FF019BFE
:1088CC00093323610025DEE70199304602F0AAFA4C
:1088DC00D9E730B589B00C461546002300938DF8C6
:1088EC0004300269130203F47F0343EA0263110AA2
:1088FC0001F47F410B4343EA1263CDF80530234664
:10890C0053F8072FCDF809209A889B79ADF80D20E4
:10891C008DF80F30406904AA69461130FFF760FDED
:10892C00062309E0013B9BB2591C625C08A8184461
:10893C0010F8100C42406A54002BF3D109B030BD32
:10894C0030B58FB004460AAB002211460068FFF721
:10895C0057FD2369A3F109052268D27A02BB0422D0
:10896C008DF8242022685269013201920AAA0292DF
:10897C00023B03930793A268023292B2ADF8102027
:10898C000021ADF8181005911344089301A8FFF7C6
:10899C002FFD2A4629462068FFF79BFF0FB030BDFC
:1089AC000822DDE72DE9F04F95B004AF8A46164654
:1089BC001D46044618B312B30BB39A421FD04FF0A6
:1089CC000008A7F82080C7F81C8007F130033B6132
:1089DC00F31D7B61EB1D7B623078C009FDF7A0FEB7
:1089EC00206187F80B80A14649F8148F96F8008017
:1089FC0008F07F084946404606F0AAFC67E0784636
:108A0C00664B1B680BB19847D9E700DED7E7AAF194
:108A1C000903E27A2AB10822934204D24FF0000BE8
:108A2C0067E00422F8E7E1682089FAF7D7FE83466D
:108A3C0010B303233B7006237B7087F802A07D6084
:108A4C003846FAF76BFEA0B1554B1B6813F0200F9C
:108A5C000FD0544B1B68012B0BD9534BD3F8043557
:108A6C000190524A00924FF499725149022000F041
:108A7C0013FC4FF0000B3CE03946208906F036FD24
:108A8C00002836D14FF0010B33E00423DBB287F81A
:108A9C002C30AAEB0303073B9BB23B837A6913444C
:108AAC00BB6207F13003002211462046FFF7A8FCF9
:108ABC0063690133FB6007F10B0107F10C00FFF751
:108ACC009BFCFB7AEBB94946404606F041FC6369D6
